{
  "_format": "hh-sol-artifact-1",
  "contractName": "Dex",
  "sourceName": "contracts/Dex.sol",
  "abi": [
    {
      "anonymous": false,
      "inputs": [
        {
          "indexed": true,
          "internalType": "address",
          "name": "owner",
          "type": "address"
        },
        {
          "indexed": false,
          "internalType": "enum IBedroomNft.Category",
          "name": "category",
          "type": "uint8"
        },
        {
          "indexed": false,
          "internalType": "uint256",
          "name": "designId",
          "type": "uint256"
        }
      ],
      "name": "BuyNft",
      "type": "event"
    },
    {
      "anonymous": false,
      "inputs": [
        {
          "indexed": false,
          "internalType": "uint8",
          "name": "version",
          "type": "uint8"
        }
      ],
      "name": "Initialized",
      "type": "event"
    },
    {
      "anonymous": false,
      "inputs": [
        {
          "indexed": true,
          "internalType": "address",
          "name": "previousOwner",
          "type": "address"
        },
        {
          "indexed": true,
          "internalType": "address",
          "name": "newOwner",
          "type": "address"
        }
      ],
      "name": "OwnershipTransferred",
      "type": "event"
    },
    {
      "anonymous": false,
      "inputs": [
        {
          "indexed": true,
          "internalType": "address",
          "name": "sender",
          "type": "address"
        },
        {
          "indexed": false,
          "internalType": "uint256",
          "name": "price",
          "type": "uint256"
        }
      ],
      "name": "ReceivedMoney",
      "type": "event"
    },
    {
      "anonymous": false,
      "inputs": [
        {
          "indexed": true,
          "internalType": "address",
          "name": "owner",
          "type": "address"
        },
        {
          "indexed": false,
          "internalType": "enum IBedroomNft.Category",
          "name": "category",
          "type": "uint8"
        },
        {
          "indexed": false,
          "internalType": "uint256",
          "name": "tokenId",
          "type": "uint256"
        },
        {
          "indexed": false,
          "internalType": "uint256",
          "name": "newDesignId",
          "type": "uint256"
        },
        {
          "indexed": false,
          "internalType": "uint256",
          "name": "upgradeDesignId",
          "type": "uint256"
        },
        {
          "indexed": false,
          "internalType": "uint256",
          "name": "upgradeIndex",
          "type": "uint256"
        },
        {
          "indexed": false,
          "internalType": "uint256",
          "name": "price",
          "type": "uint256"
        }
      ],
      "name": "UpgradeNft",
      "type": "event"
    },
    {
      "anonymous": false,
      "inputs": [
        {
          "indexed": true,
          "internalType": "address",
          "name": "receiver",
          "type": "address"
        },
        {
          "indexed": false,
          "internalType": "uint256",
          "name": "price",
          "type": "uint256"
        }
      ],
      "name": "WithdrawMoney",
      "type": "event"
    },
    {
      "inputs": [],
      "name": "bedroomNftInstance",
      "outputs": [
        {
          "internalType": "contract IBedroomNft",
          "name": "",
          "type": "address"
        }
      ],
      "stateMutability": "view",
      "type": "function"
    },
    {
      "inputs": [
        {
          "internalType": "enum IBedroomNft.Category",
          "name": "_category",
          "type": "uint8"
        },
        {
          "internalType": "uint256",
          "name": "_designId",
          "type": "uint256"
        }
      ],
      "name": "buyNft",
      "outputs": [],
      "stateMutability": "payable",
      "type": "function"
    },
    {
      "inputs": [],
      "name": "getBalance",
      "outputs": [
        {
          "internalType": "uint256",
          "name": "",
          "type": "uint256"
        }
      ],
      "stateMutability": "view",
      "type": "function"
    },
    {
      "inputs": [
        {
          "internalType": "address",
          "name": "_teamWallet",
          "type": "address"
        },
        {
          "internalType": "contract ISleepToken",
          "name": "_sleepToken",
          "type": "address"
        },
        {
          "internalType": "contract IBedroomNft",
          "name": "_bedroomNft",
          "type": "address"
        },
        {
          "internalType": "contract IUpgradeNft",
          "name": "_upgradeNft",
          "type": "address"
        }
      ],
      "name": "initialize",
      "outputs": [],
      "stateMutability": "nonpayable",
      "type": "function"
    },
    {
      "inputs": [],
      "name": "owner",
      "outputs": [
        {
          "internalType": "address",
          "name": "",
          "type": "address"
        }
      ],
      "stateMutability": "view",
      "type": "function"
    },
    {
      "inputs": [
        {
          "internalType": "enum IBedroomNft.Category",
          "name": "",
          "type": "uint8"
        }
      ],
      "name": "prices",
      "outputs": [
        {
          "internalType": "uint256",
          "name": "purchaseCost",
          "type": "uint256"
        }
      ],
      "stateMutability": "view",
      "type": "function"
    },
    {
      "inputs": [],
      "name": "renounceOwnership",
      "outputs": [],
      "stateMutability": "nonpayable",
      "type": "function"
    },
    {
      "inputs": [
        {
          "internalType": "enum IBedroomNft.Category",
          "name": "_category",
          "type": "uint8"
        },
        {
          "internalType": "uint256",
          "name": "_price",
          "type": "uint256"
        }
      ],
      "name": "setBuyingPrices",
      "outputs": [],
      "stateMutability": "nonpayable",
      "type": "function"
    },
    {
      "inputs": [
        {
          "internalType": "address",
          "name": "_newAddress",
          "type": "address"
        }
      ],
      "name": "setTeamWallet",
      "outputs": [],
      "stateMutability": "nonpayable",
      "type": "function"
    },
    {
      "inputs": [
        {
          "internalType": "enum IBedroomNft.Category",
          "name": "_category",
          "type": "uint8"
        },
        {
          "internalType": "uint256",
          "name": "_upgradeIndex",
          "type": "uint256"
        },
        {
          "internalType": "uint256",
          "name": "_indexAttribute",
          "type": "uint256"
        },
        {
          "internalType": "uint256",
          "name": "_valueToAddMax",
          "type": "uint256"
        },
        {
          "internalType": "uint256",
          "name": "_price",
          "type": "uint256"
        }
      ],
      "name": "setUpgradePrices",
      "outputs": [],
      "stateMutability": "nonpayable",
      "type": "function"
    },
    {
      "inputs": [],
      "name": "sleepTokenInstance",
      "outputs": [
        {
          "internalType": "contract ISleepToken",
          "name": "",
          "type": "address"
        }
      ],
      "stateMutability": "view",
      "type": "function"
    },
    {
      "inputs": [],
      "name": "teamWallet",
      "outputs": [
        {
          "internalType": "address",
          "name": "",
          "type": "address"
        }
      ],
      "stateMutability": "view",
      "type": "function"
    },
    {
      "inputs": [
        {
          "internalType": "address",
          "name": "newOwner",
          "type": "address"
        }
      ],
      "name": "transferOwnership",
      "outputs": [],
      "stateMutability": "nonpayable",
      "type": "function"
    },
    {
      "inputs": [
        {
          "internalType": "uint256",
          "name": "_tokenId",
          "type": "uint256"
        },
        {
          "internalType": "uint256",
          "name": "_newDesignId",
          "type": "uint256"
        },
        {
          "internalType": "uint256",
          "name": "_upgradeDesignId",
          "type": "uint256"
        },
        {
          "internalType": "uint256",
          "name": "_upgradeIndex",
          "type": "uint256"
        },
        {
          "internalType": "uint256",
          "name": "_price",
          "type": "uint256"
        }
      ],
      "name": "upgradeNft",
      "outputs": [],
      "stateMutability": "nonpayable",
      "type": "function"
    },
    {
      "inputs": [],
      "name": "upgradeNftInstance",
      "outputs": [
        {
          "internalType": "contract IUpgradeNft",
          "name": "",
          "type": "address"
        }
      ],
      "stateMutability": "view",
      "type": "function"
    },
    {
      "inputs": [],
      "name": "withdrawMoney",
      "outputs": [],
      "stateMutability": "nonpayable",
      "type": "function"
    },
    {
      "stateMutability": "payable",
      "type": "receive"
    }
  ],
  "bytecode": "0x608060405234801561001057600080fd5b50612696806100206000396000f3fe6080604052600436106100f75760003560e01c80638a3177a31161008a578063db6f3d6e11610059578063db6f3d6e1461032a578063e4ff09df14610355578063f2fde38b1461037e578063f8c8765e146103a75761014c565b80638a3177a3146102825780638da5cb5b146102bf578063ac446002146102ea578063d37e5c6c146103015761014c565b80634a9c2276116100c65780634a9c2276146101f957806359927044146102245780636b3a7b001461024f578063715018a61461026b5761014c565b80630bf98f091461015157806312065fe01461017a5780631525ff7d146101a557806330b67cb3146101ce5761014c565b3661014c573373ffffffffffffffffffffffffffffffffffffffff167fe3abd548243c02b6b6adfaa9f4d721e545bef8c1e915fd1158695d8c128be0f5346040516101429190611839565b60405180910390a2005b600080fd5b34801561015d57600080fd5b50610178600480360381019061017391906118b4565b6103d0565b005b34801561018657600080fd5b5061018f61048f565b60405161019c9190611839565b60405180910390f35b3480156101b157600080fd5b506101cc60048036038101906101c79190611952565b610513565b005b3480156101da57600080fd5b506101e36105d3565b6040516101f091906119de565b60405180910390f35b34801561020557600080fd5b5061020e6105f9565b60405161021b9190611a1a565b60405180910390f35b34801561023057600080fd5b5061023961061f565b6040516102469190611a44565b60405180910390f35b610269600480360381019061026491906118b4565b610645565b005b34801561027757600080fd5b506102806107a9565b005b34801561028e57600080fd5b506102a960048036038101906102a49190611a5f565b610831565b6040516102b69190611839565b60405180910390f35b3480156102cb57600080fd5b506102d461084f565b6040516102e19190611a44565b60405180910390f35b3480156102f657600080fd5b506102ff610879565b005b34801561030d57600080fd5b5061032860048036038101906103239190611a8c565b6109ba565b005b34801561033657600080fd5b5061033f611046565b60405161034c9190611b28565b60405180910390f35b34801561036157600080fd5b5061037c60048036038101906103779190611b43565b61106c565b005b34801561038a57600080fd5b506103a560048036038101906103a09190611952565b611176565b005b3480156103b357600080fd5b506103ce60048036038101906103c99190611c78565b61126d565b005b6103d8611585565b73ffffffffffffffffffffffffffffffffffffffff166103f661084f565b73ffffffffffffffffffffffffffffffffffffffff161461044c576040517f08c379a000000000000000000000000000000000000000000000000000000000815260040161044390611d3c565b60405180910390fd5b806069600084600281111561046457610463611d5c565b5b600281111561047657610475611d5c565b5b8152602001908152602001600020600001819055505050565b6000610499611585565b73ffffffffffffffffffffffffffffffffffffffff166104b761084f565b73ffffffffffffffffffffffffffffffffffffffff161461050d576040517f08c379a000000000000000000000000000000000000000000000000000000000815260040161050490611d3c565b60405180910390fd5b47905090565b61051b611585565b73ffffffffffffffffffffffffffffffffffffffff1661053961084f565b73ffffffffffffffffffffffffffffffffffffffff161461058f576040517f08c379a000000000000000000000000000000000000000000000000000000000815260040161058690611d3c565b60405180910390fd5b80606560006101000a81548173ffffffffffffffffffffffffffffffffffffffff021916908373ffffffffffffffffffffffffffffffffffffffff16021790555050565b606860009054906101000a900473ffffffffffffffffffffffffffffffffffffffff1681565b606660009054906101000a900473ffffffffffffffffffffffffffffffffffffffff1681565b606560009054906101000a900473ffffffffffffffffffffffffffffffffffffffff1681565b6069600083600281111561065c5761065b611d5c565b5b600281111561066e5761066d611d5c565b5b8152602001908152602001600020600001543410156106c2576040517f08c379a00000000000000000000000000000000000000000000000000000000081526004016106b990611dd7565b60405180910390fd5b606760009054906101000a900473ffffffffffffffffffffffffffffffffffffffff1673ffffffffffffffffffffffffffffffffffffffff16636994f475823485336040518563ffffffff1660e01b81526004016107239493929190611e3f565b600060405180830381600087803b15801561073d57600080fd5b505af1158015610751573d6000803e3d6000fd5b505050503373ffffffffffffffffffffffffffffffffffffffff167f1eecca468696826e4a3e1cede53d8f7201e081e5c5ea6413268f845f866d606d838360405161079d929190611e84565b60405180910390a25050565b6107b1611585565b73ffffffffffffffffffffffffffffffffffffffff166107cf61084f565b73ffffffffffffffffffffffffffffffffffffffff1614610825576040517f08c379a000000000000000000000000000000000000000000000000000000000815260040161081c90611d3c565b60405180910390fd5b61082f600061158d565b565b60696020528060005260406000206000915090508060000154905081565b6000603360009054906101000a900473ffffffffffffffffffffffffffffffffffffffff16905090565b610881611585565b73ffffffffffffffffffffffffffffffffffffffff1661089f61084f565b73ffffffffffffffffffffffffffffffffffffffff16146108f5576040517f08c379a00000000000000000000000000000000000000000000000000000000081526004016108ec90611d3c565b60405180910390fd5b6000606560009054906101000a900473ffffffffffffffffffffffffffffffffffffffff16905060004790508173ffffffffffffffffffffffffffffffffffffffff166108fc829081150290604051600060405180830381858888f19350505050158015610967573d6000803e3d6000fd5b508173ffffffffffffffffffffffffffffffffffffffff167f9fe2db218b58c00ab3556f2be44b2769b37978368c63313d82d78306568e4776826040516109ae9190611839565b60405180910390a25050565b6000606760009054906101000a900473ffffffffffffffffffffffffffffffffffffffff1673ffffffffffffffffffffffffffffffffffffffff1663f4e6a71c876040518263ffffffff1660e01b8152600401610a179190611839565b60a060405180830381865afa158015610a34573d6000803e3d6000fd5b505050506040513d601f19601f82011682018060405250810190610a589190612009565b9050600081608001519050600060696000836002811115610a7c57610a7b611d5c565b5b6002811115610a8e57610a8d611d5c565b5b81526020019081526020016000206001016000868152602001908152602001600020600201549050600060696000846002811115610acf57610ace611d5c565b5b6002811115610ae157610ae0611d5c565b5b81526020019081526020016000206001016000878152602001908152602001600020600101549050600060696000856002811115610b2257610b21611d5c565b5b6002811115610b3457610b33611d5c565b5b81526020019081526020016000206001016000888152602001908152602001600020600001549050846000015173ffffffffffffffffffffffffffffffffffffffff163373ffffffffffffffffffffffffffffffffffffffff1614610bce576040517f08c379a0000000000000000000000000000000000000000000000000000000008152600401610bc590612082565b60405180910390fd5b828614610c10576040517f08c379a0000000000000000000000000000000000000000000000000000000008152600401610c07906120ee565b60405180910390fd5b6000606660009054906101000a900473ffffffffffffffffffffffffffffffffffffffff1673ffffffffffffffffffffffffffffffffffffffff166370a08231336040518263ffffffff1660e01b8152600401610c6d9190611a44565b602060405180830381865afa158015610c8a573d6000803e3d6000fd5b505050506040513d601f19601f82011682018060405250810190610cae919061210e565b905086811015610cf3576040517f08c379a0000000000000000000000000000000000000000000000000000000008152600401610cea90612187565b60405180910390fd5b86606660009054906101000a900473ffffffffffffffffffffffffffffffffffffffff1673ffffffffffffffffffffffffffffffffffffffff1663dd62ed3e33306040518363ffffffff1660e01b8152600401610d519291906121a7565b602060405180830381865afa158015610d6e573d6000803e3d6000fd5b505050506040513d601f19601f82011682018060405250810190610d92919061210e565b1015610dd3576040517f08c379a0000000000000000000000000000000000000000000000000000000008152600401610dca9061221c565b60405180910390fd5b606660009054906101000a900473ffffffffffffffffffffffffffffffffffffffff1673ffffffffffffffffffffffffffffffffffffffff166379cc679033896040518363ffffffff1660e01b8152600401610e3092919061223c565b600060405180830381600087803b158015610e4a57600080fd5b505af1158015610e5e573d6000803e3d6000fd5b505050508087606660009054906101000a900473ffffffffffffffffffffffffffffffffffffffff1673ffffffffffffffffffffffffffffffffffffffff166370a08231336040518263ffffffff1660e01b8152600401610ebf9190611a44565b602060405180830381865afa158015610edc573d6000803e3d6000fd5b505050506040513d601f19601f82011682018060405250810190610f00919061210e565b610f0a9190612294565b14610f4a576040517f08c379a0000000000000000000000000000000000000000000000000000000008152600401610f4190612336565b60405180910390fd5b606860009054906101000a900473ffffffffffffffffffffffffffffffffffffffff1673ffffffffffffffffffffffffffffffffffffffff1663c13d4dbb8b8b8a8688336040518763ffffffff1660e01b8152600401610faf96959493929190612356565b600060405180830381600087803b158015610fc957600080fd5b505af1158015610fdd573d6000803e3d6000fd5b505050503373ffffffffffffffffffffffffffffffffffffffff167f5319ec737e1e9ba6d507c8afa0327e8725eb73bef297d253bec5eaccd5dbbefd868d8d8d8d8d604051611031969594939291906123b7565b60405180910390a25050505050505050505050565b606760009054906101000a900473ffffffffffffffffffffffffffffffffffffffff1681565b611074611585565b73ffffffffffffffffffffffffffffffffffffffff1661109261084f565b73ffffffffffffffffffffffffffffffffffffffff16146110e8576040517f08c379a00000000000000000000000000000000000000000000000000000000081526004016110df90611d3c565b60405180910390fd5b6040518060600160405280848152602001838152602001828152506069600087600281111561111a57611119611d5c565b5b600281111561112c5761112b611d5c565b5b815260200190815260200160002060010160008681526020019081526020016000206000820151816000015560208201518160010155604082015181600201559050505050505050565b61117e611585565b73ffffffffffffffffffffffffffffffffffffffff1661119c61084f565b73ffffffffffffffffffffffffffffffffffffffff16146111f2576040517f08c379a00000000000000000000000000000000000000000000000000000000081526004016111e990611d3c565b60405180910390fd5b600073ffffffffffffffffffffffffffffffffffffffff168173ffffffffffffffffffffffffffffffffffffffff1603611261576040517f08c379a00000000000000000000000000000000000000000000000000000000081526004016112589061248a565b60405180910390fd5b61126a8161158d565b50565b60006112796001611653565b9050801561129d576001600060016101000a81548160ff0219169083151502179055505b6112a5611743565b84606560006101000a81548173ffffffffffffffffffffffffffffffffffffffff021916908373ffffffffffffffffffffffffffffffffffffffff16021790555083606660006101000a81548173ffffffffffffffffffffffffffffffffffffffff021916908373ffffffffffffffffffffffffffffffffffffffff16021790555082606760006101000a81548173ffffffffffffffffffffffffffffffffffffffff021916908373ffffffffffffffffffffffffffffffffffffffff16021790555081606860006101000a81548173ffffffffffffffffffffffffffffffffffffffff021916908373ffffffffffffffffffffffffffffffffffffffff160217905550600073ffffffffffffffffffffffffffffffffffffffff16606560009054906101000a900473ffffffffffffffffffffffffffffffffffffffff1673ffffffffffffffffffffffffffffffffffffffff1603611408576114076124aa565b5b600073ffffffffffffffffffffffffffffffffffffffff16606760009054906101000a900473ffffffffffffffffffffffffffffffffffffffff1673ffffffffffffffffffffffffffffffffffffffff1603611467576114666124aa565b5b600073ffffffffffffffffffffffffffffffffffffffff16606860009054906101000a900473ffffffffffffffffffffffffffffffffffffffff1673ffffffffffffffffffffffffffffffffffffffff16036114c6576114c56124aa565b5b600073ffffffffffffffffffffffffffffffffffffffff16606660009054906101000a900473ffffffffffffffffffffffffffffffffffffffff1673ffffffffffffffffffffffffffffffffffffffff1603611525576115246124aa565b5b801561157e5760008060016101000a81548160ff0219169083151502179055507f7f26b83ff96e1f2b6a682f133852f6798a09c465da95921460cefb384740249860016040516115759190612521565b60405180910390a15b5050505050565b600033905090565b6000603360009054906101000a900473ffffffffffffffffffffffffffffffffffffffff16905081603360006101000a81548173ffffffffffffffffffffffffffffffffffffffff021916908373ffffffffffffffffffffffffffffffffffffffff1602179055508173ffffffffffffffffffffffffffffffffffffffff168173ffffffffffffffffffffffffffffffffffffffff167f8be0079c531659141344cd1fd0a4f28419497f9722a3daafe3b4186f6b6457e060405160405180910390a35050565b60008060019054906101000a900460ff16156116ca5760018260ff1614801561168257506116803061179c565b155b6116c1576040517f08c379a00000000000000000000000000000000000000000000000000000000081526004016116b8906125ae565b60405180910390fd5b6000905061173e565b8160ff1660008054906101000a900460ff1660ff161061171f576040517f08c379a0000000000000000000000000000000000000000000000000000000008152600401611716906125ae565b60405180910390fd5b816000806101000a81548160ff021916908360ff160217905550600190505b919050565b600060019054906101000a900460ff16611792576040517f08c379a000000000000000000000000000000000000000000000000000000000815260040161178990612640565b60405180910390fd5b61179a6117bf565b565b6000808273ffffffffffffffffffffffffffffffffffffffff163b119050919050565b600060019054906101000a900460ff1661180e576040517f08c379a000000000000000000000000000000000000000000000000000000000815260040161180590612640565b60405180910390fd5b61181e611819611585565b61158d565b565b6000819050919050565b61183381611820565b82525050565b600060208201905061184e600083018461182a565b92915050565b6000604051905090565b600080fd5b6003811061187057600080fd5b50565b60008135905061188281611863565b92915050565b61189181611820565b811461189c57600080fd5b50565b6000813590506118ae81611888565b92915050565b600080604083850312156118cb576118ca61185e565b5b60006118d985828601611873565b92505060206118ea8582860161189f565b9150509250929050565b600073ffffffffffffffffffffffffffffffffffffffff82169050919050565b600061191f826118f4565b9050919050565b61192f81611914565b811461193a57600080fd5b50565b60008135905061194c81611926565b92915050565b6000602082840312156119685761196761185e565b5b60006119768482850161193d565b91505092915050565b6000819050919050565b60006119a461199f61199a846118f4565b61197f565b6118f4565b9050919050565b60006119b682611989565b9050919050565b60006119c8826119ab565b9050919050565b6119d8816119bd565b82525050565b60006020820190506119f360008301846119cf565b92915050565b6000611a04826119ab565b9050919050565b611a14816119f9565b82525050565b6000602082019050611a2f6000830184611a0b565b92915050565b611a3e81611914565b82525050565b6000602082019050611a596000830184611a35565b92915050565b600060208284031215611a7557611a7461185e565b5b6000611a8384828501611873565b91505092915050565b600080600080600060a08688031215611aa857611aa761185e565b5b6000611ab68882890161189f565b9550506020611ac78882890161189f565b9450506040611ad88882890161189f565b9350506060611ae98882890161189f565b9250506080611afa8882890161189f565b9150509295509295909350565b6000611b12826119ab565b9050919050565b611b2281611b07565b82525050565b6000602082019050611b3d6000830184611b19565b92915050565b600080600080600060a08688031215611b5f57611b5e61185e565b5b6000611b6d88828901611873565b9550506020611b7e8882890161189f565b9450506040611b8f8882890161189f565b9350506060611ba08882890161189f565b9250506080611bb18882890161189f565b9150509295509295909350565b6000611bc982611914565b9050919050565b611bd981611bbe565b8114611be457600080fd5b50565b600081359050611bf681611bd0565b92915050565b6000611c0782611914565b9050919050565b611c1781611bfc565b8114611c2257600080fd5b50565b600081359050611c3481611c0e565b92915050565b6000611c4582611914565b9050919050565b611c5581611c3a565b8114611c6057600080fd5b50565b600081359050611c7281611c4c565b92915050565b60008060008060808587031215611c9257611c9161185e565b5b6000611ca08782880161193d565b9450506020611cb187828801611be7565b9350506040611cc287828801611c25565b9250506060611cd387828801611c63565b91505092959194509250565b600082825260208201905092915050565b7f4f776e61626c653a2063616c6c6572206973206e6f7420746865206f776e6572600082015250565b6000611d26602083611cdf565b9150611d3182611cf0565b602082019050919050565b60006020820190508181036000830152611d5581611d19565b9050919050565b7f4e487b7100000000000000000000000000000000000000000000000000000000600052602160045260246000fd5b7f4e6f7420656e6f756768206d6f6e6579207761732073656e7400000000000000600082015250565b6000611dc1601983611cdf565b9150611dcc82611d8b565b602082019050919050565b60006020820190508181036000830152611df081611db4565b9050919050565b60038110611e0857611e07611d5c565b5b50565b6000819050611e1982611df7565b919050565b6000611e2982611e0b565b9050919050565b611e3981611e1e565b82525050565b6000608082019050611e54600083018761182a565b611e61602083018661182a565b611e6e6040830185611e30565b611e7b6060830184611a35565b95945050505050565b6000604082019050611e996000830185611e30565b611ea6602083018461182a565b9392505050565b600080fd5b6000601f19601f8301169050919050565b7f4e487b7100000000000000000000000000000000000000000000000000000000600052604160045260246000fd5b611efb82611eb2565b810181811067ffffffffffffffff82111715611f1a57611f19611ec3565b5b80604052505050565b6000611f2d611854565b9050611f398282611ef2565b919050565b600081519050611f4d81611926565b92915050565b600081519050611f6281611888565b92915050565b600081519050611f7781611863565b92915050565b600060a08284031215611f9357611f92611ead565b5b611f9d60a0611f23565b90506000611fad84828501611f3e565b6000830152506020611fc184828501611f53565b6020830152506040611fd584828501611f53565b6040830152506060611fe984828501611f53565b6060830152506080611ffd84828501611f68565b60808301525092915050565b600060a0828403121561201f5761201e61185e565b5b600061202d84828501611f7d565b91505092915050565b7f57726f6e672073656e6465720000000000000000000000000000000000000000600082015250565b600061206c600c83611cdf565b915061207782612036565b602082019050919050565b6000602082019050818103600083015261209b8161205f565b9050919050565b7f57726f6e67207478000000000000000000000000000000000000000000000000600082015250565b60006120d8600883611cdf565b91506120e3826120a2565b602082019050919050565b60006020820190508181036000830152612107816120cb565b9050919050565b6000602082840312156121245761212361185e565b5b600061213284828501611f53565b91505092915050565b7f4e6f7420656e6f7567682066756e647300000000000000000000000000000000600082015250565b6000612171601083611cdf565b915061217c8261213b565b602082019050919050565b600060208201905081810360008301526121a081612164565b9050919050565b60006040820190506121bc6000830185611a35565b6121c96020830184611a35565b9392505050565b7f436865636b20616c6c6f77616e63650000000000000000000000000000000000600082015250565b6000612206600f83611cdf565b9150612211826121d0565b602082019050919050565b60006020820190508181036000830152612235816121f9565b9050919050565b60006040820190506122516000830185611a35565b61225e602083018461182a565b9392505050565b7f4e487b7100000000000000000000000000000000000000000000000000000000600052601160045260246000fd5b600061229f82611820565b91506122aa83611820565b9250827fffffffffffffffffffffffffffffffffffffffffffffffffffffffffffffffff038211156122df576122de612265565b5b828201905092915050565b7f416e206572726f72206f63637572726564000000000000000000000000000000600082015250565b6000612320601183611cdf565b915061232b826122ea565b602082019050919050565b6000602082019050818103600083015261234f81612313565b9050919050565b600060c08201905061236b600083018961182a565b612378602083018861182a565b612385604083018761182a565b612392606083018661182a565b61239f608083018561182a565b6123ac60a0830184611a35565b979650505050505050565b600060c0820190506123cc6000830189611e30565b6123d9602083018861182a565b6123e6604083018761182a565b6123f3606083018661182a565b612400608083018561182a565b61240d60a083018461182a565b979650505050505050565b7f4f776e61626c653a206e6577206f776e657220697320746865207a65726f206160008201527f6464726573730000000000000000000000000000000000000000000000000000602082015250565b6000612474602683611cdf565b915061247f82612418565b604082019050919050565b600060208201905081810360008301526124a381612467565b9050919050565b7f4e487b7100000000000000000000000000000000000000000000000000000000600052600160045260246000fd5b6000819050919050565b600060ff82169050919050565b600061250b612506612501846124d9565b61197f565b6124e3565b9050919050565b61251b816124f0565b82525050565b60006020820190506125366000830184612512565b92915050565b7f496e697469616c697a61626c653a20636f6e747261637420697320616c72656160008201527f647920696e697469616c697a6564000000000000000000000000000000000000602082015250565b6000612598602e83611cdf565b91506125a38261253c565b604082019050919050565b600060208201905081810360008301526125c78161258b565b9050919050565b7f496e697469616c697a61626c653a20636f6e7472616374206973206e6f74206960008201527f6e697469616c697a696e67000000000000000000000000000000000000000000602082015250565b600061262a602b83611cdf565b9150612635826125ce565b604082019050919050565b600060208201905081810360008301526126598161261d565b905091905056fea264697066735822122006dad8dc2206b51603053f7687f27160238445d6ddceed22bb1bb2f56297a89464736f6c634300080d0033",
  "linkReferences": {},
  "deployedLinkReferences": {}
}